{"abi":[{"type":"constructor","inputs":[{"name":"Name","type":"string","internalType":"string"},{"name":"Ticker","type":"string","internalType":"string"}],"stateMutability":"nonpayable"},{"type":"function","name":"ACCOUNT_MARGIN_SUMMARY_PRECOMPILE_ADDRESS","inputs":[],"outputs":[{"name":"","type":"address","internalType":"address"}],"stateMutability":"view"},{"type":"function","name":"BBO_PRECOMPILE_ADDRESS","inputs":[],"outputs":[{"name":"","type":"address","internalType":"address"}],"stateMutability":"view"},{"type":"function","name":"Owner","inputs":[],"outputs":[{"name":"","type":"address","internalType":"address"}],"stateMutability":"view"},{"type":"function","name":"POSITION_PRECOMPILE_ADDRESS","inputs":[],"outputs":[{"name":"","type":"address","internalType":"address"}],"stateMutability":"view"},{"type":"function","name":"RouterAddress","inputs":[],"outputs":[{"name":"","type":"address","internalType":"address"}],"stateMutability":"view"},{"type":"function","name":"Token","inputs":[],"outputs":[{"name":"","type":"address","internalType":"contract IERC20"}],"stateMutability":"view"},{"type":"function","name":"accountMarginSummary","inputs":[],"outputs":[{"name":"","type":"tuple","internalType":"struct Delta0_ETH.AccountMarginSummary","components":[{"name":"accountValue","type":"int64","internalType":"int64"},{"name":"marginUsed","type":"uint64","internalType":"uint64"},{"name":"ntlPos","type":"uint64","internalType":"uint64"},{"name":"rawUsd","type":"int64","internalType":"int64"}]}],"stateMutability":"view"},{"type":"function","name":"allowance","inputs":[{"name":"owner","type":"address","internalType":"address"},{"name":"spender","type":"address","internalType":"address"}],"outputs":[{"name":"","type":"uint256","internalType":"uint256"}],"stateMutability":"view"},{"type":"function","name":"amountLongOnHyperEVM","inputs":[],"outputs":[{"name":"","type":"uint256","internalType":"uint256"}],"stateMutability":"view"},{"type":"function","name":"amountShortOnHyperCore","inputs":[],"outputs":[{"name":"","type":"uint256","internalType":"uint256"}],"stateMutability":"view"},{"type":"function","name":"approve","inputs":[{"name":"spender","type":"address","internalType":"address"},{"name":"value","type":"uint256","internalType":"uint256"}],"outputs":[{"name":"","type":"bool","internalType":"bool"}],"stateMutability":"nonpayable"},{"type":"function","name":"balanceOf","inputs":[{"name":"account","type":"address","internalType":"address"}],"outputs":[{"name":"","type":"uint256","internalType":"uint256"}],"stateMutability":"view"},{"type":"function","name":"coreValueUSDC","inputs":[],"outputs":[{"name":"","type":"uint64","internalType":"uint64"}],"stateMutability":"view"},{"type":"function","name":"decimals","inputs":[],"outputs":[{"name":"","type":"uint8","internalType":"uint8"}],"stateMutability":"view"},{"type":"function","name":"deposit","inputs":[{"name":"amount","type":"uint256","internalType":"uint256"}],"outputs":[],"stateMutability":"nonpayable"},{"type":"function","name":"getTokenBalance","inputs":[],"outputs":[{"name":"","type":"uint256","internalType":"uint256"}],"stateMutability":"view"},{"type":"function","name":"name","inputs":[],"outputs":[{"name":"","type":"string","internalType":"string"}],"stateMutability":"view"},{"type":"function","name":"nextRebalanceisA","inputs":[],"outputs":[{"name":"","type":"bool","internalType":"bool"}],"stateMutability":"view"},{"type":"function","name":"position","inputs":[{"name":"user","type":"address","internalType":"address"},{"name":"perp","type":"uint16","internalType":"uint16"}],"outputs":[{"name":"","type":"tuple","internalType":"struct Delta0_ETH.Position","components":[{"name":"szi","type":"int64","internalType":"int64"},{"name":"entryNtl","type":"uint64","internalType":"uint64"},{"name":"isolatedRawUsd","type":"int64","internalType":"int64"},{"name":"leverage","type":"uint32","internalType":"uint32"},{"name":"isIsolated","type":"bool","internalType":"bool"}]}],"stateMutability":"view"},{"type":"function","name":"rebalance","inputs":[{"name":"leverageNumerator","type":"uint256","internalType":"uint256"},{"name":"leverageDenominator","type":"uint256","internalType":"uint256"}],"outputs":[{"name":"","type":"uint256","internalType":"uint256"},{"name":"","type":"uint256","internalType":"uint256"},{"name":"","type":"bool","internalType":"bool"}],"stateMutability":"nonpayable"},{"type":"function","name":"sendToHyperCore","inputs":[{"name":"amount","type":"uint256","internalType":"uint256"}],"outputs":[],"stateMutability":"nonpayable"},{"type":"function","name":"shouldIncreaseCollateral","inputs":[],"outputs":[{"name":"","type":"bool","internalType":"bool"}],"stateMutability":"view"},{"type":"function","name":"symbol","inputs":[],"outputs":[{"name":"","type":"string","internalType":"string"}],"stateMutability":"view"},{"type":"function","name":"takeFromHyperCore","inputs":[{"name":"amount","type":"uint256","internalType":"uint256"}],"outputs":[],"stateMutability":"nonpayable"},{"type":"function","name":"totalSupply","inputs":[],"outputs":[{"name":"","type":"uint256","internalType":"uint256"}],"stateMutability":"view"},{"type":"function","name":"totalUSDCValueStoredInToken","inputs":[],"outputs":[{"name":"","type":"uint256","internalType":"uint256"}],"stateMutability":"view"},{"type":"function","name":"totalUSDCValueUnderManagement","inputs":[],"outputs":[{"name":"","type":"uint256","internalType":"uint256"}],"stateMutability":"view"},{"type":"function","name":"transfer","inputs":[{"name":"to","type":"address","internalType":"address"},{"name":"value","type":"uint256","internalType":"uint256"}],"outputs":[{"name":"","type":"bool","internalType":"bool"}],"stateMutability":"nonpayable"},{"type":"function","name":"transferFrom","inputs":[{"name":"from","type":"address","internalType":"address"},{"name":"to","type":"address","internalType":"address"},{"name":"value","type":"uint256","internalType":"uint256"}],"outputs":[{"name":"","type":"bool","internalType":"bool"}],"stateMutability":"nonpayable"},{"type":"function","name":"valueLockedByUser","inputs":[{"name":"user","type":"address","internalType":"address"}],"outputs":[{"name":"","type":"uint256","internalType":"uint256"}],"stateMutability":"view"},{"type":"function","name":"valueOfTokenUsdc","inputs":[],"outputs":[{"name":"","type":"uint256","internalType":"uint256"}],"stateMutability":"view"},{"type":"function","name":"withdraw","inputs":[{"name":"amount","type":"uint256","internalType":"uint256"}],"outputs":[],"stateMutability":"nonpayable"},{"type":"function","name":"withdrawalMultiplier","inputs":[{"name":"amount","type":"uint256","internalType":"uint256"}],"outputs":[{"name":"","type":"uint256","internalType":"uint256"}],"stateMutability":"view"},{"type":"function","name":"yieldMultiplier","inputs":[],"outputs":[{"name":"","type":"uint256","internalType":"uint256"}],"stateMutability":"view"},{"type":"event","name":"Approval","inputs":[{"name":"owner","type":"address","indexed":true,"internalType":"address"},{"name":"spender","type":"address","indexed":true,"internalType":"address"},{"name":"value","type":"uint256","indexed":false,"internalType":"uint256"}],"anonymous":false},{"type":"event","name":"Transfer","inputs":[{"name":"from","type":"address","indexed":true,"internalType":"address"},{"name":"to","type":"address","indexed":true,"internalType":"address"},{"name":"value","type":"uint256","indexed":false,"internalType":"uint256"}],"anonymous":false},{"type":"error","name":"CoreWriterLib__CannotSelfTransfer","inputs":[]},{"type":"error","name":"CoreWriterLib__CoreAmountTooLarge","inputs":[{"name":"amount","type":"uint256","internalType":"uint256"}]},{"type":"error","name":"CoreWriterLib__EvmAmountTooSmall","inputs":[{"name":"amount","type":"uint256","internalType":"uint256"}]},{"type":"error","name":"CoreWriterLib__HypeTransferFailed","inputs":[]},{"type":"error","name":"ERC20InsufficientAllowance","inputs":[{"name":"spender","type":"address","internalType":"address"},{"name":"allowance","type":"uint256","internalType":"uint256"},{"name":"needed","type":"uint256","internalType":"uint256"}]},{"type":"error","name":"ERC20InsufficientBalance","inputs":[{"name":"sender","type":"address","internalType":"address"},{"name":"balance","type":"uint256","internalType":"uint256"},{"name":"needed","type":"uint256","internalType":"uint256"}]},{"type":"error","name":"ERC20InvalidApprover","inputs":[{"name":"approver","type":"address","internalType":"address"}]},{"type":"error","name":"ERC20InvalidReceiver","inputs":[{"name":"receiver","type":"address","internalType":"address"}]},{"type":"error","name":"ERC20InvalidSender","inputs":[{"name":"sender","type":"address","internalType":"address"}]},{"type":"error","name":"ERC20InvalidSpender","inputs":[{"name":"spender","type":"address","internalType":"address"}]},{"type":"error","name":"HLConversions__InvalidToken","inputs":[{"name":"token","type":"uint64","internalType":"uint64"}]},{"type":"error","name":"PrecompileLib__AccountMarginSummaryPrecompileFailed","inputs":[]},{"type":"error","name":"PrecompileLib__MarkPxPrecompileFailed","inputs":[]},{"type":"error","name":"PrecompileLib__PerpAssetInfoPrecompileFailed","inputs":[]},{"type":"error","name":"PrecompileLib__PositionPrecompileFailed","inputs":[]},{"type":"error","name":"PrecompileLib__SpotBalancePrecompileFailed","inputs":[]},{"type":"error","name":"PrecompileLib__TokenInfoPrecompileFailed","inputs":[]},{"type":"error","name":"SafeCastOverflowedUintDowncast","inputs":[{"name":"bits","type":"uint8","internalType":"uint8"},{"name":"value","type":"uint256","internalType":"uint256"}]},{"type":"error","name":"SafeERC20FailedOperation","inputs":[{"name":"token","type":"address","internalType":"address"}]}],"bytecode":{"object":"0x608060405234610349576131f2803803806100198161034d565b9283398101906040818303126103495780516001600160401b0381116103495782610045918301610372565b60208201519092906001600160401b038111610349576100659201610372565b81516001600160401b03811161025c57600354600181811c9116801561033f575b602082101461023e57601f81116102dc575b50602092601f821160011461027b57928192935f92610270575b50508160011b915f199060031b1c1916176003555b80516001600160401b03811161025c57600454600181811c91168015610252575b602082101461023e57601f81116101db575b50602091601f821160011461017b579181925f92610170575b50508160011b915f199060031b1c1916176004555b600a8054600680546001600160a01b031916331790556001600160a81b0319167401be6727b535545c67d5caa73dea54865b92cf7907179055604051612e2e90816103c48239f35b015190505f80610113565b601f1982169260045f52805f20915f5b8581106101c3575083600195106101ab575b505050811b01600455610128565b01515f1960f88460031b161c191690555f808061019d565b9192602060018192868501518155019401920161018b565b60045f527f8a35acfbc15ff81a39ae7d344fd709f28e8600b4aa8c65c6b64bfe7fe36bd19b601f830160051c81019160208410610234575b601f0160051c01905b81811061022957506100fa565b5f815560010161021c565b9091508190610213565b634e487b7160e01b5f52602260045260245ffd5b90607f16906100e8565b634e487b7160e01b5f52604160045260245ffd5b015190505f806100b2565b601f1982169360035f52805f20915f5b8681106102c457508360019596106102ac575b505050811b016003556100c7565b01515f1960f88460031b161c191690555f808061029e565b9192602060018192868501518155019401920161028b565b60035f527fc2575a0e9e593c00f959f8c92f12db2869c3395a3b0502d05e2516446f71f85b601f830160051c81019160208410610335575b601f0160051c01905b81811061032a5750610098565b5f815560010161031d565b9091508190610314565b90607f1690610086565b5f80fd5b6040519190601f01601f191682016001600160401b0381118382101761025c57604052565b81601f82011215610349578051906001600160401b03821161025c576103a1601f8301601f191660200161034d565b928284526020838301011161034957815f9260208093018386015e830101529056fe60806040526004361015610011575f80fd5b5f5f3560e01c8063036af45c14610fab578063063b1da114610f9057806306ab64b614610f6757806306fdde0314610eaa578063095ea7b314610dff5780630ae048a914610de457806318160ddd14610dc65780631fa6b31114610da757806323b872dd14610cc55780632e1a7d4d14610b2d578063313ce56714610b11578063333d043714610ad757806357df8cbc14610aae57806370a0823114610a7657806377d82de81461096057806382b2e257146108d757806389cf7c89146107a857806395d89b4114610697578063980a2736146105ea578063a9059cbb146105b8578063b4a99a4e1461058f578063b6b55f251461048f578063c241267614610466578063c480b4c61461043d578063c644ef7314610419578063c847c451146103f3578063c9683887146103d8578063ca7d43d4146103b2578063d27e3645146102e0578063db81b5dd146102b7578063dd62ed3e14610264578063df8879b81461021b578063f262a188146101e95763fc63090014610190575f80fd5b346101e657806003193601126101e6576101a8611386565b9081620f42400291620f42408304036101d25760206101ca836002549061135b565b604051908152f35b634e487b7160e01b81526011600452602490fd5b80fd5b50346101e65760203660031901126101e6576006546001600160a01b031633036101e6576102186004356126ad565b80f35b50346101e65760403660031901126101e6576006546001600160a01b031633036101e657606061024f602435600435611796565b90604051928352602083015215156040820152f35b50346101e65760403660031901126101e657604061028061123f565b91610289611255565b9260018060a01b031681526001602052209060018060a01b03165f52602052602060405f2054604051908152f35b50346101e657806003193601126101e6576009546040516001600160a01b039091168152602090f35b50346101e657806003193601126101e6576040516370a0823160e01b81523060048201526020816024815f516020612db95f395f51905f525afa9081156103a757829161036f575b50610344670de0b6b3a76400009161033e6121fc565b90611348565b049061271082029180830461271014901517156101d25760206101ca83610369611386565b9061135b565b90506020813d60201161039f575b8161038a60209383611327565b8101031261039b5751610344610328565b5f80fd5b3d915061037d565b6040513d84823e3d90fd5b50346101e657806003193601126101e657602060ff600a5460a81c166040519015158152f35b50346101e657806003193601126101e65760206101ca611700565b50346101e657806003193601126101e657602060ff600a5460a01c166040519015158152f35b50346101e65760203660031901126101e65760206101ca61043861123f565b6116d6565b50346101e657806003193601126101e6576005546040516001600160a01b039091168152602090f35b50346101e657806003193601126101e657600a546040516001600160a01b039091168152602090f35b50346101e65760203660031901126101e65760043581602060018060a01b03600a54166064604051809481936323b872dd60e01b83523360048401523060248401528760448401525af180156105845761053c575b5061050564e8d4a51000916104f761243d565b506105006121fc565b611348565b0460025415155f146105325761052c6105246102189260025490611348565b610369611386565b33612566565b6102189033612566565b6020813d60201161057c575b8161055560209383611327565b810103126105785764e8d4a510009161057061050592611542565b5091506104e4565b8280fd5b3d9150610548565b6040513d85823e3d90fd5b50346101e657806003193601126101e6576006546040516001600160a01b039091168152602090f35b50346101e65760403660031901126101e6576105df6105d561123f565b6024359033612380565b602060405160018152f35b50346101e657806003193601126101e6576040516370a0823160e01b81523060048201526020816024815f516020612db95f395f51905f525afa91821561068b5791610651575b6020670de0b6b3a76400006106488461033e6121fc565b04604051908152f35b90506020813d602011610683575b8161066c60209383611327565b8101031261039b5751670de0b6b3a7640000610631565b3d915061065f565b604051903d90823e3d90fd5b50346101e657806003193601126101e6576040519080600454908160011c9160018116801561079e575b60208410811461078a578386529081156107635750600114610706575b610702846106ee81860382611327565b60405191829160208352602083019061121b565b0390f35b600481527f8a35acfbc15ff81a39ae7d344fd709f28e8600b4aa8c65c6b64bfe7fe36bd19b939250905b808210610749575090915081016020016106ee826106de565b919260018160209254838588010152019101909291610730565b60ff191660208087019190915292151560051b850190920192506106ee91508390506106de565b634e487b7160e01b83526022600452602483fd5b92607f16926106c1565b50346101e65760403660031901126101e657806107c361123f565b6024359061ffff821682036108d35782916107dc611637565b50600854604080516001600160a01b039485166020820190815261ffff9490941681830152908152921691610812606082611327565b51915afa9061081f61158e565b911561088e57815182019060a0838303126101e65760a06108468460208086019101611672565b608060405191805160070b83526001600160401b036020820151166020840152604081015160070b604084015263ffffffff6060820151166060840152015115156080820152f35b60405162461bcd60e51b815260206004820152601f60248201527f506f736974696f6e20707265636f6d70696c652063616c6c206661696c6564006044820152606490fd5b5050fd5b50346101e657806003193601126101e657600a546040516370a0823160e01b81523060048201529190602090839060249082906001600160a01b03165afa90811561068b579061092d575b602090604051908152f35b506020813d602011610958575b8161094760209383611327565b8101031261039b5760209051610922565b3d915061093a565b50346101e657806003193601126101e65761097961154f565b50808060018060a01b0360095416604051602081019060018252306040820152604081526109a8606082611327565b51915afa906109b561158e565b9115610a1b5781518201906080838303126101e65760806109dc84602080860191016115df565b606060405191805160070b83526001600160401b0360208201511660208401526001600160401b036040820151166040840152015160070b6060820152f35b60405162461bcd60e51b815260206004820152602d60248201527f4163636f756e74206d617267696e2073756d6d61727920707265636f6d70696c60448201526c194818d85b1b0819985a5b1959609a1b6064820152608490fd5b50346101e65760203660031901126101e6576020906040906001600160a01b03610a9e61123f565b1681528083522054604051908152f35b50346101e657806003193601126101e6576008546040516001600160a01b039091168152602090f35b50346101e657806003193601126101e65760206064610af530612173565b516001600160401b0316046001600160401b0360405191168152f35b50346101e657806003193601126101e657602060405160128152f35b50346101e65760203660031901126101e65760043590610b5c82610500610b53336116d6565b61033e83611445565b670de0b6b3a7640000810290808204670de0b6b3a76400001490151715610cb1576020610ba2610b9a610bc99333865285845260408620549061135b565b6103696121fc565b60405163a9059cbb60e01b8152336004820152602481019190915291829081906044820190565b0381855f516020612db95f395f51905f525af180156103a757610c76575b503315610c625733815280602052604081205491808310610c49578082933384528360205203604083205580600254036002556040519081527fddf252ad1be2c89b69c2b068fc378daa952ba7f163c4a11628f55a4df523b3ef60203392a380f35b60649263391434e360e21b835233600452602452604452fd5b634b637e8f60e11b81526004819052602490fd5b6020813d602011610ca9575b81610c8f60209383611327565b81010312610ca557610ca090611542565b610be7565b5080fd5b3d9150610c82565b634e487b7160e01b82526011600452602482fd5b50346101e65760603660031901126101e657610cdf61123f565b610ce7611255565b6001600160a01b038216808452600160209081526040808620335f908152925290205460443593915f198210610d24575b50506105df9350612380565b848210610d8c578015610d78573315610d6457856040916105df975260016020522060018060a01b0333165f526020528360405f20910390555f80610d18565b634a1406b160e11b86526004869052602486fd5b63e602df0560e01b86526004869052602486fd5b6064868684637dc7a0d960e11b835233600452602452604452fd5b50346101e65760203660031901126101e65760206101ca600435611445565b50346101e657806003193601126101e6576020600254604051908152f35b50346101e657806003193601126101e65760206101ca611386565b50346101e65760403660031901126101e657610e1961123f565b602435903315610e96576001600160a01b0316918215610e8257604090338152600160205220825f526020528060405f20556040519081527f8c5be1e5ebec7d5bd14f71427d1e84f3dd0314c0f7b2291e5b200ac8c7c3b92560203392a3602060405160018152f35b634a1406b160e11b81526004819052602490fd5b63e602df0560e01b83526004839052602483fd5b50346101e657806003193601126101e6576040519080600354908160011c91600181168015610f5d575b60208410811461078a578386529081156107635750600114610f0057610702846106ee81860382611327565b600381527fc2575a0e9e593c00f959f8c92f12db2869c3395a3b0502d05e2516446f71f85b939250905b808210610f43575090915081016020016106ee826106de565b919260018160209254838588010152019101909291610f2a565b92607f1692610ed4565b50346101e657806003193601126101e6576007546040516001600160a01b039091168152602090f35b50346101e657806003193601126101e65760206101ca61126b565b503461039b57602036600319011261039b57600654600435906001600160a01b0316330361039b57610fdb61243d565b90466103e60361120157730b80659a4076e9e93c7dbe0f10675a16a3e5c2065b6001600160a01b0316916001600160401b036110178383612a04565b16156111ee5761102681612ad2565b906001600160401b0381168061111857506001600160a01b03915061104b9050612841565b60405163095ea7b360e01b81526001600160a01b03851660048201526024810184905291602091839160449183915f91165af180156110d6576110e1575b50813b1561039b575f91604483926040519485938492630acb7f4b60e21b8452600484015263ffffffff60248401525af180156110d6576110c8575080f35b6110d491505f90611327565b005b6040513d5f823e3d90fd5b6020813d602011611110575b816110fa60209383611327565b8101031261039b5761110b90611542565b611089565b3d91506110ed565b90919293506001600160401b0361112d612da4565b160361115c57505f80809381935af161114461158e565b501561114d5780f35b6373566f9960e11b5f5260045ffd5b6001600160a01b03906080906111779063ffffffff16612b3a565b015116916040519163a9059cbb60e01b5f5260018060a01b031660045260245260205f60448180865af19060015f51148216156111cd575b604052156111bb575080f35b635274afe760e01b5f5260045260245ffd5b9060018115166111e557823b15153d151616906111af565b503d5f823e3d90fd5b506322b20dd160e11b5f5260045260245ffd5b736b9e773128f453f5c2c60935ee2de2cbc5390a24610ffb565b805180835260209291819084018484015e5f828201840152601f01601f1916010190565b600435906001600160a01b038216820361039b57565b602435906001600160a01b038216820361039b57565b6103e8611277306120fd565b5160070b028060070b908103611292578060ff1d8091011890565b634e487b7160e01b5f52601160045260245ffd5b608081019081106001600160401b038211176112c157604052565b634e487b7160e01b5f52604160045260245ffd5b60a081019081106001600160401b038211176112c157604052565b606081019081106001600160401b038211176112c157604052565b61010081019081106001600160401b038211176112c157604052565b90601f801991011681019081106001600160401b038211176112c157604052565b8181029291811591840414171561129257565b8115611365570490565b634e487b7160e01b5f52601260045260245ffd5b9190820180921161129257565b6040516370a0823160e01b81523060048201526020816024815f516020612db95f395f51905f525afa80156110d6575f906113f9575b6113f691506001600160401b03670de0b6b3a76400006113ed60646113e030612173565b518416049361033e6121fc565b04911690611379565b90565b506020813d602011611425575b8161141360209383611327565b8101031261039b576113f690516113bc565b3d9150611406565b81810392915f13801582851316918412161761129257565b6040516370a0823160e01b81523060048201526020816024815f516020612db95f395f51905f525afa9081156110d6575f9161150e575b50611492670de0b6b3a76400009161033e6121fc565b0490606461149f30612173565b516001600160401b031604916114b760025482611348565b6127108102908082046127101490151715611292576103696114e5926001600160401b036114ea9616611379565b61135b565b61270f19810190811360011661129257612710808212911802612710185f81130290565b90506020813d60201161153a575b8161152960209383611327565b8101031261039b575161149261147c565b3d915061151c565b5190811515820361039b57565b6040519061155c826112a6565b5f6060838281528260208201528260408201520152565b6001600160401b0381116112c157601f01601f191660200190565b3d156115b8573d9061159f82611573565b916115ad6040519384611327565b82523d5f602084013e565b606090565b51908160070b820361039b57565b51906001600160401b038216820361039b57565b919082608091031261039b576040516115f7816112a6565b6060611632818395611608816115bd565b8552611616602082016115cb565b6020860152611627604082016115cb565b6040860152016115bd565b910152565b60405190611644826112d5565b5f6080838281528260208201528260408201528260608201520152565b519063ffffffff8216820361039b57565b91908260a091031261039b5760405161168a816112d5565b608061163281839561169b816115bd565b85526116a9602082016115cb565b60208601526116ba604082016115bd565b60408601526116cb60608201611661565b606086015201611542565b60018060a01b03165f525f6020526113f66116f760405f205461033e611386565b6002549061135b565b6117086125c3565b6040516370a0823160e01b81523060048201526020816024815f516020612db95f395f51905f525afa9081156110d6575f9161175e575b5061175a906001600160401b03655af3107a40009316611348565b0490565b90506020813d60201161178e575b8161177960209383611327565b8101031261039b5751655af3107a400061173f565b3d915061176c565b9190600a545f9060ff8160a01c165f146120ce5750600a805460ff60a01b1981169091556117c3306120fd565b506117cc61126b565b906117d5611700565b6001600160401b0360646117e830612173565b518216041690611812600196610369889a61180c6118068787611379565b82611348565b92611379565b9261181d838561142d565b8060ff1d806107d061182d611386565b0492011811611b10575b5061184b929161184691611379565b6126a0565b90611856818361142d565b8060ff1d80614e20611866611386565b049201181161187a575b5050509190600190565b8082116119eb575b811061188f575b80611870565b6001600160401b0391929450600a900416906118f5826040516118b3606082611327565b602a81527f73697a65206f662073686f72742064656372656173652073656e7420746f20686020820152691e5c195c9b1a5c5d5a5960b21b6040820152612d1c565b61196561197361190d6001600160801b0342166129e6565b6001600160801b036040519160016020840152600160408401528560608401528660808401528560a0840152600360c08401521660e082015260e0815261195661010082611327565b6040519283916020830161298d565b03601f198101835282611327565b5f516020612dd95f395f51905f523b15610ca557816119ae91604051809381926317938e1360e01b835260206004840152602483019061121b565b0381835f516020612dd95f395f51905f525af180156103a7576119d6575b5050915f80611889565b6119e1828092611327565b6101e657806119cc565b9450600a6001600160401b03611a0187846126a0565b16026001600160401b038116908103611afc57611965611a74611a2c6001600160801b0342166129e6565b6001600160801b0360405191600160208401528760408401528760608401528560808401528760a0840152600360c08401521660e082015260e0815261195661010082611327565b5f516020612dd95f395f51905f523b15611af85783611aaf91604051809381926317938e1360e01b835260206004840152602483019061121b565b0381835f516020612dd95f395f51905f525af18015611aed57908491611ad8575b505094611882565b81611ae291611327565b61057857825f611ad0565b6040513d86823e3d90fd5b8380fd5b634e487b7160e01b83526011600452602483fd5b828411611cde575b50818310611b27575b5f611837565b600a805460ff60a81b1916905594506001600160401b0362989680611b4c84846126a0565b0416611965611b8160405183602082015287604082015260408152611b72606082611327565b60405192839160208301612963565b5f516020612dd95f395f51905f523b15611cc55785611bbc91604051809381926317938e1360e01b835260206004840152602483019061121b565b0381835f516020612dd95f395f51905f525af18015611cba57908691611cc9575b5050611965611c3b606483046001600160401b03604051916127ed60208401528960408401528960608401521660808201528760a0820152600360c08201526001600160801b03421660e082015260e0815261195661010082611327565b5f516020612dd95f395f51905f523b15611cc55785611c7691604051809381926317938e1360e01b835260206004840152602483019061121b565b0381835f516020612dd95f395f51905f525af18015611cba57908691611ca1575b5090959050611b21565b81611cab91611327565b611cb657845f611c97565b8480fd5b6040513d88823e3d90fd5b8580fd5b81611cd391611327565b611cb657845f611bdd565b61ffff60a01b1916600160a81b17600a5594611cfa82846126a0565b655af3107a4000810290808204655af3107a4000149015171561129257611d32906001600160401b03611d2b6125c3565b169061135b565b6006549091906001600160a01b0316330361039b57611d4f61243d565b466103e6036120b457730b80659a4076e9e93c7dbe0f10675a16a3e5c2065b6001600160a01b0316916001600160401b03611d8a8584612a04565b16156120a157908391611d9c82612ad2565b916001600160401b03811680611fe157506001600160a01b039350611dc49250612841915050565b60405163095ea7b360e01b81526001600160a01b03841660048201526024810185905291602091839160449183915f91165af180156110d657611faa575b50803b1561039b575f8091604460405180948193630acb7f4b60e21b835287600484015263ffffffff60248401525af180156110d657611f91575b506305f5e100905b04611965611eeb604092611e8e818551611e5f8782611327565b601981527f74726164652073697a65206f6e206879706572436f72653a20000000000000006020820152612d1c565b6001600160401b0384519160dd602084015289868401528960608401521660808201528760a0820152600360c08201526001600160801b03421660e082015260e08152611edd61010082611327565b83519283916020830161298d565b5f516020612dd95f395f51905f523b15611cc5579085611f26928251809481926317938e1360e01b835260206004840152602483019061121b565b0381835f516020612dd95f395f51905f525af1908115611f885750908591611f73575b50506001600160401b03606481611f5f30612898565b511604611f6b816129b7565b16945f611b18565b81611f7d91611327565b611af857835f611f49565b513d87823e3d90fd5b611f9e9195505f90611327565b5f936305f5e100611e3d565b6020813d602011611fd9575b81611fc360209383611327565b8101031261039b57611fd490611542565b611e02565b3d9150611fb6565b9091929394506001600160401b03611ff7612da4565b16036120205750505f80809381935af161200f61158e565b501561114d576305f5e10090611e45565b9092506001600160a01b039060809061203e9063ffffffff16612b3a565b015116916040519163a9059cbb60e01b5f5260018060a01b03166004528360245260205f60448180875af190805f511482161561208c575b5090604052156111bb57506305f5e10090611e45565b8115166111e557823b15153d1516165f612076565b836322b20dd160e11b5f5260045260245ffd5b736b9e773128f453f5c2c60935ee2de2cbc5390a24611d6e565b60ff60a01b1916600160a01b17600a55506001600160401b0392508290506120f461260e565b93169216905f90565b5f8091612108611637565b50604051602081019160018060a01b031682526001604082015260408152612131606082611327565b51906108005afa61214061158e565b901561216457805181019060a08183031261039b576020806113f693019101611672565b637de84ab760e01b5f5260045ffd5b5f809161217e61154f565b50604080516001602082019081526001600160a01b03909316818301529081526121a9606082611327565b519061080f5afa6121b861158e565b90156121dc57805181019060808183031261039b576020806113f6930191016115df565b633e7a7ff960e11b5f5260045ffd5b60ff16604d811161129257600a0a90565b5f608060405161220b816112d5565b6060815282602082015282604082015282606082015201525f8060405160208101906001825260208152612240604082611327565b519061080a5afa61224f61158e565b901561237157805181019060208183031261039b576020810151906001600160401b03821161039b57019060a08282031261039b5760405190612291826112d5565b60208301516001600160401b03811161039b576020806122b59301918501016127ed565b81526122c360408301611661565b602082015260806122ee60a06122db60608601612833565b94604085019586526116cb848201612833565b9101525f80604051602081019063ffffffff600116825260208152612314604082611327565b51906108065afa9061232461158e565b91156123625760208280518101031261039b576001600160401b0361235b60ff61235360206113f696016115cb565b9351166121eb565b9116611348565b63928da67360e01b5f5260045ffd5b630f09f9dd60e31b5f5260045ffd5b6001600160a01b031690811561242a576001600160a01b031691821561241757815f525f60205260405f20548181106123fe57817fddf252ad1be2c89b69c2b068fc378daa952ba7f163c4a11628f55a4df523b3ef92602092855f525f84520360405f2055845f525f825260405f20818154019055604051908152a3565b8263391434e360e21b5f5260045260245260445260645ffd5b63ec442f0560e01b5f525f60045260245ffd5b634b637e8f60e11b5f525f60045260245ffd5b6001600160a01b0361244d612841565b165f516020612db95f395f51905f52146124f3576040516319b02f4960e21b81525f516020612db95f395f51905f526004820152602081602481730b51d1a9098cf8a72c325003f44c194d41d7a85b5afa80156110d6575f906124b6575b63ffffffff91501690565b506020813d6020116124eb575b816124d060209383611327565b8101031261039b576124e663ffffffff91611661565b6124ab565b3d91506124c3565b5f90565b6001600160a01b03612507612841565b6001600160a01b039092169116811461256157604051906319b02f4960e21b82526004820152602081602481730b51d1a9098cf8a72c325003f44c194d41d7a85b5afa80156110d6575f906124b65763ffffffff91501690565b505f90565b6001600160a01b0316908115612417577fddf252ad1be2c89b69c2b068fc378daa952ba7f163c4a11628f55a4df523b3ef6020826125a75f94600254611379565b60025584845283825260408420818154019055604051908152a3565b5f80604051602081019060018252602081526125e0604082611327565b51906108065afa6125ef61158e565b90156123625760208180518101031261039b5760206113f691016115cb565b5f905f9060ff600a5460a81c1661267d5760ff600a5460a81c161561262f57565b915050633b9aca006001600160401b0361264830612898565b511602906001600160401b03821691820361129257612666826126ad565b600a5460a81c60ff1615612678575f90565b600190565b91505060646001600160401b0361269330612898565b51160490612666826129b7565b9190820391821161129257565b6126c35f516020612db95f395f51905f526124f7565b6126cc81612ad2565b6001600160401b036126de8484612a04565b169283156127db57506001600160a01b03163081146127cc576020926001600160401b03612765936040519386850152166040830152606082015260608152612728608082611327565b604051600160f81b848201908152600360e91b600182015282519194859360049392918391018285015e01015f815203601f198101835282611327565b5f516020612dd95f395f51905f523b1561039b575f6127a091604051809381926317938e1360e01b835260206004840152602483019061121b565b0381835f516020612dd95f395f51905f525af180156110d6576127c05750565b5f6127ca91611327565b565b63cd64884160e01b5f5260045ffd5b6322b20dd160e11b5f5260045260245ffd5b81601f8201121561039b5780519061280482611573565b926128126040519485611327565b8284526020838301011161039b57815f9260208093018386015e8301015290565b519060ff8216820361039b57565b466103e60361286257732b3370ee501b4a559b57d449569354196457d8ab90565b73b88339cb7199b77e23db6e890353e22632ba630f90565b60405190612887826112f0565b5f6040838281528260208201520152565b5f80916128a361287a565b506128ba5f516020612db95f395f51905f526124f7565b6128c261287a565b506001600160401b0360405191602083019360018060a01b03168452166040820152604081526128f3606082611327565b51906108015afa61290261158e565b90156129545760608180518101031261039b5761294c606060405192612927846112f0565b612933602082016115cb565b8452612941604082016115cb565b6020850152016115cb565b604082015290565b6303143ced60e11b5f5260045ffd5b600160f81b8152600760e81b6001820152815160049290919082906020018483015e01015f815290565b600160f81b8152600160e81b6001820152815160049290919082906020018483015e01015f815290565b612765611965916001600160401b03604051911660208201526001604082015260408152611b72606082611327565b6001600160801b036001911601906001600160801b03821161129257565b9190612a1f63ffffffff6001600160401b0385169416612b3a565b60808101516001600160a01b031615612aa05760e0019283515f0b5f81135f14612a5f575050612a5a906103696113f693945160ff166121eb565b612d73565b9093505f8112612a7e575050505b6208ebed60e21b5f5260045260245ffd5b91925090607f198114611292576113f69161033e612a5a925f0360ff166121eb565b506001600160401b03612ab1612da4565b168314612abf575050612a6d565b9091506402540be4006113f69104612d73565b6001600160401b0380612ae3612da4565b169116908114612b0d576001609d1b016001600160a01b038111611292576001600160a01b031690565b5073222222222222222222222222222222222222222290565b51906001600160a01b038216820361039b57565b5f80918160e0604051612b4c8161130b565b60608152606060208201528260408201528260608201528260808201528260a08201528260c082015201526040516001600160401b03602082019216825260208152612b99604082611327565b519061080c5afa90612ba961158e565b9115612d0d5781518201602081019260208183031261039b576020810151906001600160401b03821161039b570190610100908290031261039b5760405190612bf18261130b565b60208101516001600160401b03811161039b57846020612c13928401016127ed565b825260408101516001600160401b03811161039b576020908201019380601f8601121561039b578451906001600160401b0382116112c1578160051b9560405192612c616020890185611327565b835260208084019782010191821161039b57602001955b818710612cf5575050829394506020610100930152612c99606082016115cb565b6040840152612caa60808201612b26565b6060840152612cbb60a08201612b26565b6080840152612ccc60c08201612833565b60a0840152612cdd60e08201612833565b60c08401520151805f0b810361039b5760e082015290565b60208091612d02896115cb565b815201960195612c78565b63ee6b81c560e01b5f5260045ffd5b5f91908291612d606040518092612d4c6020830195632d839cb360e21b875260406024850152606484019061121b565b90604483015203601f198101835282611327565b51906a636f6e736f6c652e6c6f675afa50565b6001600160401b038111612d8d576001600160401b031690565b6306dfcc6560e41b5f52604060045260245260445ffd5b466103e603612db35761045190565b60969056fe000000000000000000000000be6727b535545c67d5caa73dea54865b92cf79070000000000000000000000003333333333333333333333333333333333333333a26469706673582212207975d4a6af87e7e65a3f5c6705de4b0acc6ff5f27ff404aec40b04e1bd8868c064736f6c634300081e0033","linkReferences":{}},"methodIdentifiers":{"ACCOUNT_MARGIN_SUMMARY_PRECOMPILE_ADDRESS()":"db81b5dd","BBO_PRECOMPILE_ADDRESS()":"06ab64b6","Owner()":"b4a99a4e","POSITION_PRECOMPILE_ADDRESS()":"57df8cbc","RouterAddress()":"c480b4c6","Token()":"c2412676","accountMarginSummary()":"77d82de8","allowance(address,address)":"dd62ed3e","amountLongOnHyperEVM()":"c9683887","amountShortOnHyperCore()":"063b1da1","approve(address,uint256)":"095ea7b3","balanceOf(address)":"70a08231","coreValueUSDC()":"333d0437","decimals()":"313ce567","deposit(uint256)":"b6b55f25","getTokenBalance()":"82b2e257","name()":"06fdde03","nextRebalanceisA()":"c847c451","position(address,uint16)":"89cf7c89","rebalance(uint256,uint256)":"df8879b8","sendToHyperCore(uint256)":"036af45c","shouldIncreaseCollateral()":"ca7d43d4","symbol()":"95d89b41","takeFromHyperCore(uint256)":"f262a188","totalSupply()":"18160ddd","totalUSDCValueStoredInToken()":"980a2736","totalUSDCValueUnderManagement()":"0ae048a9","transfer(address,uint256)":"a9059cbb","transferFrom(address,address,uint256)":"23b872dd","valueLockedByUser(address)":"c644ef73","valueOfTokenUsdc()":"fc630900","withdraw(uint256)":"2e1a7d4d","withdrawalMultiplier(uint256)":"1fa6b311","yieldMultiplier()":"d27e3645"},"id":20}